{
  "_format": "hh-sol-artifact-1",
  "contractName": "Ballot",
  "sourceName": "contracts/Ballot.sol",
  "abi": [
    {
      "inputs": [
        {
          "internalType": "bytes32[]",
          "name": "proposalNames",
          "type": "bytes32[]"
        }
      ],
      "stateMutability": "nonpayable",
      "type": "constructor"
    },
    {
      "inputs": [],
      "name": "chairperson",
      "outputs": [
        {
          "internalType": "address",
          "name": "",
          "type": "address"
        }
      ],
      "stateMutability": "view",
      "type": "function"
    },
    {
      "inputs": [
        {
          "internalType": "address",
          "name": "to",
          "type": "address"
        }
      ],
      "name": "delegate",
      "outputs": [],
      "stateMutability": "nonpayable",
      "type": "function"
    },
    {
      "inputs": [
        {
          "internalType": "address",
          "name": "voter",
          "type": "address"
        }
      ],
      "name": "giveRighttoVote",
      "outputs": [],
      "stateMutability": "nonpayable",
      "type": "function"
    },
    {
      "inputs": [
        {
          "internalType": "uint256",
          "name": "",
          "type": "uint256"
        }
      ],
      "name": "proposals",
      "outputs": [
        {
          "internalType": "bytes32",
          "name": "name",
          "type": "bytes32"
        },
        {
          "internalType": "uint256",
          "name": "voteCount",
          "type": "uint256"
        }
      ],
      "stateMutability": "view",
      "type": "function"
    },
    {
      "inputs": [
        {
          "internalType": "address",
          "name": "voter",
          "type": "address"
        }
      ],
      "name": "removeVotingRights",
      "outputs": [],
      "stateMutability": "nonpayable",
      "type": "function"
    },
    {
      "inputs": [
        {
          "internalType": "uint256",
          "name": "proposal",
          "type": "uint256"
        }
      ],
      "name": "vote",
      "outputs": [],
      "stateMutability": "nonpayable",
      "type": "function"
    },
    {
      "inputs": [
        {
          "internalType": "address",
          "name": "",
          "type": "address"
        }
      ],
      "name": "voters",
      "outputs": [
        {
          "internalType": "uint256",
          "name": "weight",
          "type": "uint256"
        },
        {
          "internalType": "bool",
          "name": "voted",
          "type": "bool"
        },
        {
          "internalType": "address",
          "name": "delegate",
          "type": "address"
        },
        {
          "internalType": "uint256",
          "name": "vote",
          "type": "uint256"
        }
      ],
      "stateMutability": "view",
      "type": "function"
    },
    {
      "inputs": [],
      "name": "winnerName",
      "outputs": [
        {
          "internalType": "bytes32",
          "name": "winnerName_",
          "type": "bytes32"
        }
      ],
      "stateMutability": "view",
      "type": "function"
    },
    {
      "inputs": [],
      "name": "winningProposal",
      "outputs": [
        {
          "internalType": "uint256",
          "name": "winningProposal_",
          "type": "uint256"
        }
      ],
      "stateMutability": "view",
      "type": "function"
    }
  ],
  "bytecode": "0x60806040523480156200001157600080fd5b50604051620017b9380380620017b983398181016040528101906200003791906200025b565b336000806101000a81548173ffffffffffffffffffffffffffffffffffffffff021916908373ffffffffffffffffffffffffffffffffffffffff16021790555060018060008060009054906101000a900473ffffffffffffffffffffffffffffffffffffffff1673ffffffffffffffffffffffffffffffffffffffff1673ffffffffffffffffffffffffffffffffffffffff1681526020019081526020016000206000018190555060005b81518110156200019a576002604051806040016040528084848151811062000133577f4e487b7100000000000000000000000000000000000000000000000000000000600052603260045260246000fd5b6020026020010151815260200160008152509080600181540180825580915050600190039060005260206000209060020201600090919091909150600082015181600001556020820151816001015550508080620001919062000342565b915050620000e2565b505062000419565b6000620001b9620001b384620002c9565b620002a0565b90508083825260208201905082856020860282011115620001d957600080fd5b60005b858110156200020d5781620001f2888262000244565b845260208401935060208301925050600181019050620001dc565b5050509392505050565b600082601f8301126200022957600080fd5b81516200023b848260208601620001a2565b91505092915050565b6000815190506200025581620003ff565b92915050565b6000602082840312156200026e57600080fd5b600082015167ffffffffffffffff8111156200028957600080fd5b620002978482850162000217565b91505092915050565b6000620002ac620002bf565b9050620002ba82826200030c565b919050565b6000604051905090565b600067ffffffffffffffff821115620002e757620002e6620003bf565b5b602082029050602081019050919050565b6000819050919050565b6000819050919050565b6200031782620003ee565b810181811067ffffffffffffffff82111715620003395762000338620003bf565b5b80604052505050565b60006200034f8262000302565b91507fffffffffffffffffffffffffffffffffffffffffffffffffffffffffffffffff82141562000385576200038462000390565b5b600182019050919050565b7f4e487b7100000000000000000000000000000000000000000000000000000000600052601160045260246000fd5b7f4e487b7100000000000000000000000000000000000000000000000000000000600052604160045260246000fd5b6000601f19601f8301169050919050565b6200040a81620002f8565b81146200041657600080fd5b50565b61139080620004296000396000f3fe608060405234801561001057600080fd5b50600436106100935760003560e01c80632e4176cf116100665780632e4176cf1461011d5780635c19a95c1461013b578063609ff1bd14610157578063a3ec138d14610175578063e2ba53f0146101a857610093565b80630121b93f14610098578063013cf08b146100b457806302db20fd146100e55780631d92260714610101575b600080fd5b6100b260048036038101906100ad9190610c99565b6101c6565b005b6100ce60048036038101906100c99190610c99565b610333565b6040516100dc929190610e6f565b60405180910390f35b6100ff60048036038101906100fa9190610c70565b610367565b005b61011b60048036038101906101169190610c70565b61051e565b005b6101256106d5565b6040516101329190610e39565b60405180910390f35b61015560048036038101906101509190610c70565b6106f9565b005b61015f610abb565b60405161016c9190610fb8565b60405180910390f35b61018f600480360381019061018a9190610c70565b610b8f565b60405161019f9493929190610fd3565b60405180910390f35b6101b0610bec565b6040516101bd9190610e54565b60405180910390f35b6000600160003373ffffffffffffffffffffffffffffffffffffffff1673ffffffffffffffffffffffffffffffffffffffff1681526020019081526020016000209050600081600001541415610251576040517f08c379a000000000000000000000000000000000000000000000000000000000815260040161024890610f78565b60405180910390fd5b8060010160009054906101000a900460ff16156102a3576040517f08c379a000000000000000000000000000000000000000000000000000000000815260040161029a90610f18565b60405180910390fd5b60018160010160006101000a81548160ff021916908315150217905550818160020181905550806000015460028381548110610308577f4e487b7100000000000000000000000000000000000000000000000000000000600052603260045260246000fd5b906000526020600020906002020160010160008282546103289190611029565b925050819055505050565b6002818154811061034357600080fd5b90600052602060002090600202016000915090508060000154908060010154905082565b60008054906101000a900473ffffffffffffffffffffffffffffffffffffffff1673ffffffffffffffffffffffffffffffffffffffff163373ffffffffffffffffffffffffffffffffffffffff16146103f5576040517f08c379a00000000000000000000000000000000000000000000000000000000081526004016103ec90610ed8565b60405180910390fd5b600160008273ffffffffffffffffffffffffffffffffffffffff1673ffffffffffffffffffffffffffffffffffffffff16815260200190815260200160002060010160009054906101000a900460ff1615610485576040517f08c379a000000000000000000000000000000000000000000000000000000000815260040161047c90610f98565b60405180910390fd5b6000600160008373ffffffffffffffffffffffffffffffffffffffff1673ffffffffffffffffffffffffffffffffffffffff16815260200190815260200160002060000154146104d457600080fd5b60018060008373ffffffffffffffffffffffffffffffffffffffff1673ffffffffffffffffffffffffffffffffffffffff1681526020019081526020016000206000018190555050565b60008054906101000a900473ffffffffffffffffffffffffffffffffffffffff1673ffffffffffffffffffffffffffffffffffffffff163373ffffffffffffffffffffffffffffffffffffffff16146105ac576040517f08c379a00000000000000000000000000000000000000000000000000000000081526004016105a390610ef8565b60405180910390fd5b600160008273ffffffffffffffffffffffffffffffffffffffff1673ffffffffffffffffffffffffffffffffffffffff16815260200190815260200160002060010160009054906101000a900460ff161561063c576040517f08c379a000000000000000000000000000000000000000000000000000000000815260040161063390610f38565b60405180910390fd5b60018060008373ffffffffffffffffffffffffffffffffffffffff1673ffffffffffffffffffffffffffffffffffffffff168152602001908152602001600020600001541461068a57600080fd5b6000600160008373ffffffffffffffffffffffffffffffffffffffff1673ffffffffffffffffffffffffffffffffffffffff1681526020019081526020016000206000018190555050565b60008054906101000a900473ffffffffffffffffffffffffffffffffffffffff1681565b6000600160003373ffffffffffffffffffffffffffffffffffffffff1673ffffffffffffffffffffffffffffffffffffffff16815260200190815260200160002090508060010160009054906101000a900460ff161561078e576040517f08c379a000000000000000000000000000000000000000000000000000000000815260040161078590610f58565b60405180910390fd5b3373ffffffffffffffffffffffffffffffffffffffff168273ffffffffffffffffffffffffffffffffffffffff1614156107fd576040517f08c379a00000000000000000000000000000000000000000000000000000000081526004016107f490610e98565b60405180910390fd5b5b600073ffffffffffffffffffffffffffffffffffffffff16600160008473ffffffffffffffffffffffffffffffffffffffff1673ffffffffffffffffffffffffffffffffffffffff16815260200190815260200160002060010160019054906101000a900473ffffffffffffffffffffffffffffffffffffffff1673ffffffffffffffffffffffffffffffffffffffff161461096d57600160008373ffffffffffffffffffffffffffffffffffffffff1673ffffffffffffffffffffffffffffffffffffffff16815260200190815260200160002060010160019054906101000a900473ffffffffffffffffffffffffffffffffffffffff1691503373ffffffffffffffffffffffffffffffffffffffff168273ffffffffffffffffffffffffffffffffffffffff161415610968576040517f08c379a000000000000000000000000000000000000000000000000000000000815260040161095f90610eb8565b60405180910390fd5b6107fe565b60018160010160006101000a81548160ff021916908315150217905550818160010160016101000a81548173ffffffffffffffffffffffffffffffffffffffff021916908373ffffffffffffffffffffffffffffffffffffffff1602179055506000600160008473ffffffffffffffffffffffffffffffffffffffff1673ffffffffffffffffffffffffffffffffffffffff16815260200190815260200160002090508060010160009054906101000a900460ff1615610a965781600001546002826002015481548110610a6a577f4e487b7100000000000000000000000000000000000000000000000000000000600052603260045260246000fd5b90600052602060002090600202016001016000828254610a8a9190611029565b92505081905550610ab6565b8160000154816000016000828254610aae9190611029565b925050819055505b505050565b6000806000905060005b600280549050811015610b8a578160028281548110610b0d577f4e487b7100000000000000000000000000000000000000000000000000000000600052603260045260246000fd5b9060005260206000209060020201600101541115610b775760028181548110610b5f577f4e487b7100000000000000000000000000000000000000000000000000000000600052603260045260246000fd5b90600052602060002090600202016001015491508092505b8080610b82906110d1565b915050610ac5565b505090565b60016020528060005260406000206000915090508060000154908060010160009054906101000a900460ff16908060010160019054906101000a900473ffffffffffffffffffffffffffffffffffffffff16908060020154905084565b60006002610bf8610abb565b81548110610c2f577f4e487b7100000000000000000000000000000000000000000000000000000000600052603260045260246000fd5b906000526020600020906002020160000154905090565b600081359050610c558161132c565b92915050565b600081359050610c6a81611343565b92915050565b600060208284031215610c8257600080fd5b6000610c9084828501610c46565b91505092915050565b600060208284031215610cab57600080fd5b6000610cb984828501610c5b565b91505092915050565b610ccb8161107f565b82525050565b610cda81611091565b82525050565b610ce98161109d565b82525050565b6000610cfc601f83611018565b9150610d0782611149565b602082019050919050565b6000610d1f601d83611018565b9150610d2a82611172565b602082019050919050565b6000610d42603183611018565b9150610d4d8261119b565b604082019050919050565b6000610d65603183611018565b9150610d70826111ea565b604082019050919050565b6000610d88601383611018565b9150610d9382611239565b602082019050919050565b6000610dab602d83611018565b9150610db682611262565b604082019050919050565b6000610dce601783611018565b9150610dd9826112b1565b602082019050919050565b6000610df1601083611018565b9150610dfc826112da565b602082019050919050565b6000610e14601983611018565b9150610e1f82611303565b602082019050919050565b610e33816110c7565b82525050565b6000602082019050610e4e6000830184610cc2565b92915050565b6000602082019050610e696000830184610ce0565b92915050565b6000604082019050610e846000830185610ce0565b610e916020830184610e2a565b9392505050565b60006020820190508181036000830152610eb181610cef565b9050919050565b60006020820190508181036000830152610ed181610d12565b9050919050565b60006020820190508181036000830152610ef181610d35565b9050919050565b60006020820190508181036000830152610f1181610d58565b9050919050565b60006020820190508181036000830152610f3181610d7b565b9050919050565b60006020820190508181036000830152610f5181610d9e565b9050919050565b60006020820190508181036000830152610f7181610dc1565b9050919050565b60006020820190508181036000830152610f9181610de4565b9050919050565b60006020820190508181036000830152610fb181610e07565b9050919050565b6000602082019050610fcd6000830184610e2a565b92915050565b6000608082019050610fe86000830187610e2a565b610ff56020830186610cd1565b6110026040830185610cc2565b61100f6060830184610e2a565b95945050505050565b600082825260208201905092915050565b6000611034826110c7565b915061103f836110c7565b9250827fffffffffffffffffffffffffffffffffffffffffffffffffffffffffffffffff038211156110745761107361111a565b5b828201905092915050565b600061108a826110a7565b9050919050565b60008115159050919050565b6000819050919050565b600073ffffffffffffffffffffffffffffffffffffffff82169050919050565b6000819050919050565b60006110dc826110c7565b91507fffffffffffffffffffffffffffffffffffffffffffffffffffffffffffffffff82141561110f5761110e61111a565b5b600182019050919050565b7f4e487b7100000000000000000000000000000000000000000000000000000000600052601160045260246000fd5b7f73656c662d64656c65676174696f6e206973206e6f7420616c6c6f7765642e00600082015250565b7f466f756e64206c6f6f7020647572696e672044656c65676174696f6e2e000000600082015250565b7f6f6e6c79204368616972706572736f6e20616c6c6f77656420746f206173736960008201527f676e20766f74696e67207269676874732e000000000000000000000000000000602082015250565b7f4f6e6c79206368616972706572736f6e20616c6c6f77656420746f2072656d6f60008201527f766520766f74696e67207269676874732e000000000000000000000000000000602082015250565b7f416c726561647920766f746564206f6e63652e00000000000000000000000000600082015250565b7f566f7465722063616e6e6f742062652072656d6f766564207768696c6520766f60008201527f7465206973206163746976652e00000000000000000000000000000000000000602082015250565b7f596f7520616c726561647920766f746564206f6e63652e000000000000000000600082015250565b7f4e4f20726967687420746f20766f746500000000000000000000000000000000600082015250565b7f566f74657220616c726561647920766f746564206f6e63652e00000000000000600082015250565b6113358161107f565b811461134057600080fd5b50565b61134c816110c7565b811461135757600080fd5b5056fea2646970667358221220dcb4f1436fff1bbdf178151f38b52df850488085e02cd3d3098ba26ee511922864736f6c63430008040033",
  "linkReferences": {},
  "deployedLinkReferences": {}
}